:060000000A128A110C280F
:10000800FE00030EF0000A08F1000A128A11CC2F34
:100018000A128A110F28FA01FB0183160313B4018F
:10002800B501B601B70183010A128A15952F83120B
:1000380003132808B2008030B2052808AD002D0748
:10004800B800A71F282829282A283814380803198F
:100058002E282F283E28380A031D332834283C2808
:100068000030A8000030A7000030A6000030A5002E
:10007800A71746280030A8000030A7000030A600C7
:100088000030A5002C088039B2062C08AD002D07D9
:10009800B300AB1F502851285228331433080319D2
:1000A800562857286628330A031D5B285C286428CD
:1000B8000030AC000030AB000030AA000030A900CE
:1000C800AB176E280030AC000030AB000030AA003F
:1000D8000030A900330803197228732878283808D3
:1000E800031D7728782881280030A8000030A70051
:1000F8000030A6000030A5005C2B2508F2002B0874
:100108000A128A11A3270A128A1173088312031389
:10011800BE007208BD003D08AD00AE01AF01B001E0
:100128003008B7002F08B6002E08B5002D08B40017
:100138003E08AD00AE01AF01B0013008BC002F0889
:10014800BB002E08BA002D08B9002608F2002A08BC
:100158000A128A11A3270A128A1173088312031339
:10016800BE007208BD003D08AD00AE01AF01B00190
:100178002D08B4072E0803110318013E0319C528DA
:10018800B5072F0803110318013E0319CC28B60739
:10019800300803110318013E0319D328B7073E0896
:1001A800AD00AE01AF01B0012D08B9072E0803114B
:1001B8000318013E0319E128BA072F080311031891
:1001C800013E0319E828BB07300803110318013E54
:1001D8000319EF28BC072708F20029080A128A1118
:1001E800A3270A128A11730883120313BE00720828
:1001F800BD003D08AD00AE01AF01B0012D08B40748
:100208002E0803110318013E03190B29B5072F08FF
:1002180003110318013E03191229B6073008031108
:100228000318013E03191929B7073E08AD00AE01AE
:10023800AF01B0012D08B9072E0803110318013EBC
:1002480003192729BA072F0803110318013E0319B8
:100258002E29BB07300803110318013E031935295D
:10026800BC070830AD000310B40DB50DB60DB70DC1
:10027800AD0B37292608F20029080A128A11A3278C
:100288000A128A11730883120313BE007208BD0094
:100298003D08AD003E08AE00AF01B0012D08B4071F
:1002A8002E0803110318013E03195B29B5072F080F
:1002B80003110318013E03196229B6073008031118
:1002C8000318013E03196929B7072508F2002A080F
:1002D8000A128A11A3270A128A11730883120313B8
:1002E800BE007208BD003D08AD003E08AE00AF017B
:1002F800B0012D08B4072E0803110318013E031995
:100308008629B5072F0803110318013E03198D2903
:10031800B607300803110318013E03199429B707DB
:100328000830AD000310B40DB50DB60DB70DAD0B0B
:1003380096292508F20029080A128A11A3270A1209
:100348008A11730883120313BE007208BD003D08AA
:10035800AD003E08AE00AF01B0012D08B4072E086D
:1003680003110318013E0319BA29B5072F08031111
:100378000318013E0319C129B607300803110318F1
:10038800013E0319C829B7072608F2002B080A12EC
:100398008A11A3270A128A11730883120313BE0055
:1003A8007208BD003D08AD003E08AE00AF01B001C7
:1003B8002D08B9072E0803110318013E0319E52972
:1003C800BA072F0803110318013E0319EC29BB07CC
:1003D800300803110318013E0319F329BC07270845
:1003E800F2002A080A128A11A3270A128A1173082E
:1003F80083120313BE007208BD003D08AD003E081D
:10040800AE00AF01B0012D08B9072E08031103187B
:10041800013E0319102ABA072F0803110318013ED9
:100428000319172ABB07300803110318013E0319E3
:100438001E2ABC072708F2002B080A128A11A327D4
:100448000A128A11730883120313BE007208BD00D2
:100458003D08AD003E08AE00AF01B0010830031002
:10046800AD0DAE0DAF0DB00DFF3E031D332A2D08A7
:10047800B9072E0803110318013E0319442ABA07C5
:100488002F0803110318013E03194B2ABB07300834
:1004980003110318013E0319522ABC073408AD00A2
:1004A8003508AE003608AF003708B0001830031022
:1004B800B00CAF0CAE0CAD0CFF3E031D5B2A2D0833
:1004C800B9072E0803110318013E03196C2ABA074D
:1004D8002F0803110318013E0319732ABB073008BC
:1004E80003110318013E03197A2ABC070830AD002E
:1004F8000310B40DB50DB60DB70DAD0B7C2A380839
:100508003307AD00AE01AE0D2D08823EBD002E08AA
:100518000318013EFF3EBE00AE2A0130AD000310B5
:10052800B90DBA0DBB0DBC0DAD0B932AB71F9D2A93
:100538009E2A9F2A39140130AD000310B40DB50D61
:10054800B60DB70DAD0BA12AFF30BD070318BE0AC3
:10055800FF30BE07BB1FB12AB22A912AB301B71FC9
:10056800B62AB72AD32AFF303405AD00FF30350547
:10057800AE00FF303605AF007F303705B0003008D9
:100588002F042E042D040319CA2ACB2ACE2A01309F
:10059800B300D32A391CD12AD22AD32ACB2A33082A
:1005A8000319D72AD82A092B0130B90700300318B4
:1005B8000130BA07003003180130BB0700300318B8
:1005C8000130BC073C1CE92AEA2A092B3908AD008E
:1005D8003A08AE003B08AF003C08B0000130B1005B
:1005E800300DB00CAF0CAE0CAD0CB10BF42A3008CA
:1005F800BC002F08BB002E08BA002D08B900013036
:10060800BD070318BE0A0030BE073E08803AFF0047
:1006180080307F02031D122BFF303D02031C152B77
:10062800162B212B7F3083120313BC008030BB00B4
:100638000030BA000030B900522B831203133E0871
:10064800803AFF0080307F02031D2C2B01303D02D1
:1006580003182F2B302B3C2B003083120313BC00C4
:100668000030BB000030BA000030B900B201522B94
:10067800831203133D08B800FF30B905FF30BA05EF
:100688007F30BB050030BC05381C4B2B4C2B4D2B49
:10069800BB173808AD0003102D0CBC003208BC0491
:1006A8003C08A8003B08A7003A08A6003908A5009E
:1006B8000800831203134608D0008030D00546088E
:1006C800C7004707D700C51F6A2B6B2B6C2B571425
:1006D80057080319702B712B812B570A031D752B93
:1006E800762B7E2B0030C6000030C5000030C400D9
:1006F8000030C300C517C601892B0030C600003082
:10070800C5000030C4000030C30042088039D0065C
:100718004208C7004707D800C11F932B942B952B7D
:10072800581458080319992B9A2BAA2B580A031DF9
:100738009E2B9F2BA72B0030C2000030C100003039
:10074800C0000030BF00C117C201B22B0030C20088
:100758000030C1000030C0000030BF004208410432
:1007680040043F04031DB92BBA2BD12B0030C6001F
:100778000030C5000030C4000030C3008030C5041C
:100788007F30C6045008C6044608C2004508C100A8
:100798004408C0004308BF00262D5708031DD52B69
:1007A800D62BDF2B0030C2000030C1000030C00063
:1007B8000030BF00262D5708C700C8014808CA00E6
:1007C80058084702C900031CCA0349087F3ED100E4
:1007D8004A080318013E003ED2004608CF004508EB
:1007E800CE004408CD004308CC000030C6000030DD
:1007F800C5000030C4000030C3000030D60000300F
:10080800D5000030D4000030D300D801532C58084C
:1008180003190F2C102C302C0130C7000310CC0DFD
:10082800CD0DCE0DCF0DC70B122C0130C700031014
:10083800C30DC40DC50DC60DC70B1B2CD61F252C0B
:10084800262C272C43140130C7000310D30DD40DD8
:10085800D50DD60DC70B292C42084F02031D3E2C7F
:1008680041084E02031D3E2C40084D02031D3E2C3C
:100878003F084C02031C412C422C512C56173F08B0
:10088800CC024008031C400FCD024108031C410F55
:10089800CE024208031C420FCF020130D8071A309B
:1008A8005802031C582C592C0B2C4F084E044D048D
:1008B8004C040319602C612C802C5314802C0130BB
:1008C800C7000310C30DC40DC50DC60DC70B652C9D
:1008D800D61F6F2C702C712C43140130C7000310E5
:1008E800D30DD40DD50DD60DC70B732CFF30D10702
:1008F8000318D20AFF30D207C51F832C842C632C1F
:10090800D801D61F882C892CA52CFF305305C70089
:10091800FF305405C800FF305505C9007F30560523
:10092800CA004A0849044804470403199C2C9D2C12
:10093800A02C0130D800A52C431CA32CA42CA52C3A
:100948009D2C58080319A92CAA2CDB2C0130C307AD
:10095800003003180130C407003003180130C50700
:10096800003003180130C607461CBB2CBC2CDB2CFE
:100978004308C7004408C8004508C9004608CA001B
:100988000130CB004A0DCA0CC90CC80CC70CCB0BE4
:10099800C62C4A08C6004908C5004808C4004708CC
:1009A800C3000130D1070318D20A0030D207520819
:1009B800803AFF0080307F02031DE42CFF30510293
:1009C800031CE72CE82CF62CFF3083120313D1000C
:1009D8000030D2000030C6000030C5000030C4002E
:1009E8000030C300831203135208803AFF0080309E
:1009F8007F02031D012D013051020318042D052D1E
:100A0800122D83120313D101D2010030C600003029
:100A1800C5000030C4000030C300D00183120313A6
:100A28005108D700571C192D1A2D1C2DC5171E2D1E
:100A38007F30C5055708C7000310470CC60050088B
:100A4800C604C82B0800343083160313A30086306D
:100A5800A2003730A100BD30A00044308312031338
:100A6800C2007A30C1000030C0000030BF00630807
:100A7800F2006408F300F401F50100300A128A114B
:100A880077260A128A11750883120313C6007408A0
:100A9800C5007308C4007208C3000A128A115D23D6
:100AA8000A128A1183120313420883160313A7003C
:100AB80083120313410883160313A600831203133A
:100AC800400883160313A500831203133F088316F7
:100AD8000313A400230883120313AC008316031323
:100AE800220883120313AB00831603132108831211
:100AF8000313AA0083160313200883120313A90003
:100B08004030A8008030A7000030A6000030A500C3
:100B18000A128A111B200A128A1183120313280849
:100B280083160313AF0083120313270883160313D6
:100B3800AE0083120313260883160313AD00831235
:100B48000313250883160313AC0027088312031325
:100B5800C60083160313260883120313C5008316E1
:100B68000313250883120313C400831603132408F0
:100B780083120313C300831603132F08831203136E
:100B8800AC00831603132E0883120313AB008316DD
:100B980003132D0883120313AA00831603132C08CA
:100BA80083120313A9004230A8008030A700003048
:100BB800A6000030A5000A128A111B200A128A1109
:100BC800831203132808C2002708C1002608C000A2
:100BD8002508BF000A128A115D230A128A1183129E
:100BE80003134208DC004108DB004008DA003F0834
:100BF800D9000A128A112D270A128A1183120313A7
:100C08005C0883160313AB00831203135B08831677
:100C18000313AA00831203135A0883160313A900A7
:100C280083120313590883160313A8002808831294
:100C38000313E50083160313290883120313E60040
:100C4800831603132A0883120313E700831603137A
:100C58002B0883120313E80008300310E80CE70C94
:100C6800E60CE50CFF3E031D312E680883160313BE
:100C7800B30083120313670883160313B2008312A9
:100C88000313660883160313B10083120313650860
:100C980083160313B0008312031381018316031311
:100CA80033083706031D622E32083606031D622EEE
:100CB80031083506031D622E30083406031D652EE3
:100CC800662E522E0030B7000030B6000030B50056
:100CD8000030B4000030B3000030B2000030B10082
:100CE8000030B000080083120313A0002008031985
:100CF8007E2E7F2E932EF51F822E832E932E720921
:100D0800A2007309A3007409A4007509A500A20A2A
:100D18000319A30A0319A40A0319A50A9B2E750827
:100D2800A5007408A4007308A3007208A20075083F
:100D3800740473047204031DA22EA32EAC2E00307B
:100D4800F5000030F4000030F3000030F2002C2FE2
:100D58009630A100BA2E0130A10701300310A50C6E
:100D6800A40CA30CA20CFF3E031DB22EFE302505D9
:100D7800031DBF2EC02EAF2EDA2E0130A107013081
:100D8800A207003003180130A30700300318013010
:100D9800A407003003180130A50701300310A50C83
:100DA800A40CA30CA20CFF3E031DD22EFF30250578
:100DB800031DDF2EE02EC12EEC2E0130A1020130E2
:100DC800F6000310A20DA30DA40DA50DF60BE52E3C
:100DD800A41BEF2EF02EF62E023021020318F52E5A
:100DE800F62EE12E2118F92EFA2E022FFF30A20539
:100DF800FF30A3057F30A405FF30A5050310A10C23
:100E08002108F600F701F801F90118300310F60D72
:100E1800F70DF80DF90DFF3E031D0A2F7608A20401
:100E28007708A3047808A4047908A50420080319FE
:100E38001E2F1F2F242FF51F222F232F242FA517F6
:100E48002508F5002408F4002308F3002208F2001E
:100E580008000310831203135B0D5C0DE2006208A7
:100E6800031D372F382F412F0030DC000030DB0006
:100E78000030DA000030D900A22F5908DD005A08E6
:100E8800DE005B08DF005C08E0001F300310E00CA8
:100E9800DF0CDE0CDD0CFF3E031D4A2F5D08E10070
:100EA800DB17FF30D905FF30DA05FF30DB050030EE
:100EB800DC059630E202E21F622F632F7B2F620867
:100EC800803A973E0318692F6A2F6B2F382F01300D
:100ED8000310DC0CDB0CDA0CD90CFF3E031D6C2F65
:100EE8000130E207031D792F7A2F6B2F922F2030C4
:100EF8006202031C802F812F8D2F382F0130DD00D7
:100F08000310D90DDA0DDB0DDC0DDD0B842F01305C
:100F1800E2026208031D912F922F822F61080319A4
:100F2800962F972FA22FD909DA09DB09DC09D90AEC
:100F38000319DA0A0319DB0A0319DC0A0800831209
:100F48000313A400A001A1017208F400F5017408BC
:100F5800A2007508A300241CB22FB32FB92F2208B2
:100F6800A0070318A10A2308A10701300310A20D46
:100F7800A30DFF3E031DBA2F0310A40C2408031D64
:100F8800C62FC72FAF2F2108F3002008F200080052
:100F9800013083160313B407003003180130B50776
:100FA800003003180130B607003003180130B707C6
:100FB80083120313810120308B0071088A00700EA0
:080FC8008300FE0E7E0E0900FD
:101F2A008430831603138100053081048316031756
:101F3A00880189010F308312031397008316031354
:101F4A0087017C309200831203131214171297121E
:101F5A0095011215A0308B008830E3001330E4009D
:101F6A000A128A1127250A128A1501307B02F430D7
:101F7A0003197A020318C22FC32FCA2F6430FA0733
:101F8A000318FB0A0030FB07D52FF4307A06031D2D
:101F9A00D22F7B03031DD22FD32FD52FFA01FB019A
:101FAA007A18D82FDC2F831203131716DF2F831208
:101FBA00031317127B08EA007A08E9000310EA0CF7
:101FCA00E90C6918E92FED2F831203139716F02FE6
:101FDA008312031397127B08EA007A08E9000310B8
:101FEA00EA0CE90C0310EA0CE90C69089500B12F18
:061FFA000A128A110C28F6
:00000001FF
