:060000000A128A110C280F
:10000800FE00030EF0000A08F1000A128A115328B4
:100018000A128A110F280A128A1178200A128A11E4
:10002800F60083010A128A1119288316031788011A
:100038008901831603138701803086008B178B157F
:100048009617F501760803192A282B2837287508EA
:10005800013E84000A128A1168200A128A1183124A
:10006800031387003A288312031387010630F4002C
:100078001330F300AD30F200F20B4028F30B4028A8
:10008800F40B402847280130F5070A307502031C95
:100098004E284F28262825280A128A110C28803035
:1000A800831203130606031D5A285B285D28F601F0
:1000B8005F280130F600FE308B0571088A00700E4B
:1000C8008300FE0E7E0E090000308A000408840AB0
:1000D800820700343F3421347634733469345B3416
:0A00E8005F3439347F347B34013477
:04400E00D23BFF3F63
:00000001FF
