:060000000A128A11EB2F29
:100008000800F00070088312031399000C1E0D28D5
:100018000E280A280C120800F501F11F14281528CB
:100028001C28F009F109F00A0319F10A0130F5005A
:10003800F31F1F2820282728F209F309F20A0319B9
:10004800F30A0130F506F601F70170087104031987
:100058002E282F2864280130F4003B280130031093
:10006800F00DF10DFF3E031D33280130F407F11F99
:100078003E283F28322801300310F60DF70DFF3EC9
:10008800031D402871087302031D4C287008720272
:10009800031C4F28502857287008F2027108031CC7
:1000A800F303F302761401300310F10CF00CFF3E59
:1000B800031D58280130F402031D632864283F28D3
:1000C80075080319682869286E28F609F709F60AD9
:1000D8000319F70A7708F1007608F0000800F8001D
:1000E80078080319782879288D28F31F7C287D281B
:1000F8008D287009FA007109FB007209FC00730968
:10010800FD00FA0A0319FB0A0319FC0A0319FD0A80
:1001180095287308FD007208FC007108FB00700840
:10012800FA007308720471047004031D9C289D284A
:10013800A6280030F3000030F2000030F100003053
:10014800F00026299630F900B4280130F90701306B
:100158000310FD0CFC0CFB0CFA0CFF3E031DAC2835
:10016800FE307D05031DB928BA28A928D4280130F6
:10017800F9070130FA07003003180130FB07003097
:1001880003180130FC07003003180130FD07013067
:100198000310FD0CFC0CFB0CFA0CFF3E031DCC28D5
:1001A800FF307D05031DD928DA28BB28E628013051
:1001B800F9020130F4000310FA0DFB0DFC0DFD0DE2
:1001C800F40BDF28FC1BE928EA28F0280230790222
:1001D8000318EF28F028DB287918F328F428FC28DE
:1001E800FF30FA05FF30FB057F30FC05FF30FD05C9
:1001F8000310F90C7908F400F501F601F70118303D
:100208000310F40DF50DF60DF70DFF3E031D04293F
:100218007408FA047508FB047608FC047708FD04E2
:1002280078080319182919291E29F31F1C291D29C3
:100238001E29FD177D08F3007C08F2007B08F100F9
:100248007A08F00008000A128A15FF240A128A1197
:100258000A128A154A240A128A110A128A15442691
:100268000A128A110A128A150C240A128A110A1211
:100278008A15F7250A128A11831203135F08ED0005
:100288005E08EC006C08F0006D08F100F201F30163
:1002980000300A128A1173200A128A117308831215
:1002A8000313A7007208A6007108A5007008A4002F
:1002B8004030A3009C30A2002830A100F630A000F6
:1002C8000A128A11A9240A128A1183120313230815
:1002D800C1002208C0002108BF002008BE0042302B
:1002E800BD00C830BC000030BB000030BA000A12A4
:1002F8008A11DF220A128A11831203133D08D700DC
:100308003C08D6003B08D5003A08D4000A128A15E2
:10031800F0260A128A11831203135408EF006F089B
:10032800E400E501E601E7016708F3006608F2006A
:100338006508F1006408F00001300A128A11732080
:100348000A128A11730883120313A7007208A60001
:100358007108A5007008A4004030A3006630A20010
:100368006630A1006630A0000A128A11A9240A1278
:100378008A11831203132308D7002208D600210804
:10038800D5002008D4000A128A15F0260A128A110C
:10039800831203135408EF006F080A128A1105200C
:1003A8000A128A11831203136F08E400E501640836
:1003B800C2006508C300C630C4000A128A15AD25FC
:1003C8000A128A11F501F50A01300A128A157924F0
:1003D8000A128A11C630F5000A128A1536240A1242
:1003E8008A113B290A128A11002883120313220852
:1003F8008400000884000A128A1500200A128A1153
:10040800253A031D082A092AC52A22088400013032
:100418008007E801E9010030EE00FF30EA00FF3014
:10042800EB00220884000008A700270884000A12AD
:100438008A1500200A128A11643A0319242A252AE7
:10044800312A270884000A128A1500200A128A1104
:10045800693A031D302A312ABE2A230884008313EF
:100468000008A40002308007240884000008A800BF
:10047800840A0008A900220884002708013E800099
:100488002030AC00A91B492A4B2A01304C2A0030E5
:10049800A6000130AC022C08A03E84000A30F0000F
:1004A8000030F1002908F3002808F2000A128A1522
:1004B80099260A128A117108F7007008F6000A12C4
:1004C8008A1525240A128A117608303E8313800083
:1004D8000A30F0000030F100831203132908F300FA
:1004E8002808F2000A128A1110200A128A117108CB
:1004F80083120313A9007008A80028082904031907
:10050800862A872A8C2A2C08031D8B2A8C2A4D2A96
:100518002C080319902A912AB72A26080319952A24
:10052800962AB72A0130AC022C08A03E84002D3050
:1005380083138000B72A2C08A03E84008313000888
:10054800A400A5012408F0002508F1002008F20005
:100558002108F3000A128A1566270A128A11013047
:1005680083120313AC0720302C06031DBC2ABD2AB6
:100578009F2ADE2A83120313220884000130800791
:10058800DE2A22088400000884000A128A15002046
:100598000A128A11A400A5012408F0002508F10018
:1005A8002008F2002108F3000A128A1566270A12A9
:1005B8008A11BE2A0800831203134108CB00803039
:1005C800CB054108C2004207D200C01FEC2AED2A21
:1005D800EE2A521452080319F22AF32A032B520A5C
:1005E800031DF72AF82A002B0030C1000030C00094
:1005F8000030BF000030BE00C017C1010B2B003017
:10060800C1000030C0000030BF000030BE003D080F
:100618008039CB063D08C2004207D300BC1F152B0A
:10062800162B172B5314530803191B2B1C2B2C2B7D
:10063800530A031D202B212B292B0030BD0000302D
:10064800BC000030BB000030BA00BC17BD01342B21
:100658000030BD000030BC000030BB000030BA00E4
:100668003D083C043B043A04031D3B2B3C2B532B15
:100678000030C1000030C0000030BF000030BE00B4
:100688008030C0047F30C1044B08C1044108BD005C
:100698004008BC003F08BB003E08BA00A82C52081E
:1006A800031D572B582B612B0030BD000030BC00B8
:1006B8000030BB000030BA00A82C5208C200C301A9
:1006C8004308C50053084202C400031CC50344087C
:1006D8007F3ECC0045080318013E003ECD0041088E
:1006E800CA004008C9003F08C8003E08C7000030DB
:1006F800C1000030C0000030BF000030BE00003034
:10070800D1000030D0000030CF000030CE00D3013F
:10071800D52B53080319912B922BB22B0130C20011
:100728000310C70DC80DC90DCA0DC20B942B01309B
:10073800C2000310BE0DBF0DC00DC10DC20B9D2B15
:10074800D11FA72BA82BA92B3E140130C2000310E0
:10075800CE0DCF0DD00DD10DC20BAB2B3D084A02EB
:10076800031DC02B3C084902031DC02B3B0848024F
:10077800031DC02B3A084702031CC32BC42BD32BE1
:1007880051173A08C7023B08031C3B0FC8023C0834
:10079800031C3C0FC9023D08031C3D0FCA0201306F
:1007A800D3071A305302031CDA2BDB2B8D2B4A0894
:1007B8004904480447040319E22BE32B022C4E1486
:1007C800022C0130C2000310BE0DBF0DC00DC10DBB
:1007D800C20BE72BD11FF12BF22BF32B3E14013068
:1007E800C2000310CE0DCF0DD00DD10DC20BF52BCD
:1007F800FF30CC070318CD0AFF30CD07C01F052CEA
:10080800062CE52BD301D11F0A2C0B2C272CFF30EB
:100818004E05C200FF304F05C300FF305005C4002D
:100828007F305105C50045084404430442040319B8
:100838001E2C1F2C222C0130D300272C3E1C252CCB
:10084800262C272C1F2C530803192B2C2C2C5D2C01
:100858000130BE07003003180130BF07003003180D
:100868000130C007003003180130C107411C3D2C7E
:100878003E2C5D2C3E08C2003F08C3004008C4005F
:100888004108C5000130C600450DC50CC40CC30C99
:10089800C20CC60B482C4508C1004408C0004308D8
:1008A800BF004208BE000130CC070318CD0A003053
:1008B800CD074D08803AFF0080307F02031D662C6B
:1008C800FF304C02031C692C6A2C782CFF308312F1
:1008D8000313CC000030CD000030C1000030C00050
:1008E8000030BF000030BE00831203134D08803A69
:1008F800FF0080307F02031D832C01304C02031857
:10090800862C872C942C83120313CC01CD01003044
:10091800C1000030C0000030BF000030BE00CB0175
:10092800831203134C08D200521C9B2C9C2C9E2C27
:10093800C017A02C7F30C0055208C2000310420C1B
:10094800C1004B08C1044A2B080083120313230873
:10095800AD008030AD052308A8002807B300A21F0A
:10096800B62CB72CB82C331433080319BC2CBD2C67
:10097800CC2C330A031DC12CC22CCA2C0030A30076
:100988000030A2000030A1000030A000A217D42C33
:100998000030A3000030A2000030A1000030A00009
:1009A80027088039AD062708A8002807B200A61F27
:1009B800DE2CDF2CE02C321432080319E42CE52C51
:1009C800F42C320A031DE92CEA2CF22C0030A70083
:1009D8000030A6000030A5000030A400A617FC2CAB
:1009E8000030A7000030A6000030A5000030A400A9
:1009F80032080319002D012D062D3308031D052D7E
:100A0800062D0F2D0030A3000030A2000030A100F9
:100A18000030A000EA2F2008F00026080A128A15E4
:100A280049250A128A11710883120313B900700844
:100A3800B8003808A800A901AA01AB012B08B10029
:100A48002A08B0002908AF002808AE003908A80015
:100A5800A901AA01AB012B08B7002A08B60029088A
:100A6800B5002808B4002108F00025080A128A15E4
:100A780049250A128A11710883120313B9007008F4
:100A8800B8003808A800A901AA01AB012808AE07D8
:100A9800290803110318013E0319532DAF072A082B
:100AA80003110318013E03195A2DB0072B0803112F
:100AB8000318013E0319612DB1073908A800A901DF
:100AC800AA01AB012808B407290803110318013E3D
:100AD80003196F2DB5072A0803110318013E0319DE
:100AE800762DB6072B0803110318013E03197D2D37
:100AF800B7072208F00024080A128A1549250A12A5
:100B08008A11710883120313B9007008B8003808F5
:100B1800A800A901AA01AB012808AE0729080311FA
:100B28000318013E0319992DAF072A08031103186A
:100B3800013E0319A02DB0072B0803110318013E2D
:100B48000319A72DB1073908A800A901AA01AB010B
:100B58002808B407290803110318013E0319B52D05
:100B6800B5072A0803110318013E0319BC2DB6075F
:100B78002B0803110318013E0319C32DB7070830CA
:100B8800A8000310AE0DAF0DB00DB10DA80BC52D0B
:100B98002108F00024080A128A1549250A128A1128
:100BA800710883120313B9007008B8003808A80048
:100BB8003908A900AA01AB012808AE0729080311C2
:100BC8000318013E0319E92DAF072A08031103187A
:100BD800013E0319F02DB0072B0803110318013E3D
:100BE8000319F72DB1072008F00025080A128A1505
:100BF80049250A128A11710883120313B900700873
:100C0800B8003808A8003908A900AA01AB012808CB
:100C1800AE07290803110318013E0319142EAF0764
:100C28002A0803110318013E03191B2EB0072B08CD
:100C380003110318013E0319222EB1070830A8003A
:100C48000310AE0DAF0DB00DB10DA80B242E20086A
:100C5800F00024080A128A1549250A128A11710817
:100C680083120313B9007008B8003808A8003908BF
:100C7800A900AA01AB012808AE0729080311031827
:100C8800013E0319482EAF072A0803110318013E35
:100C980003194F2EB0072B0803110318013E03193F
:100CA800562EB1072108F00026080A128A15492590
:100CB8000A128A11710883120313B9007008B80068
:100CC8003808A8003908A900AA01AB012808B40708
:100CD800290803110318013E0319732EB5072A08C2
:100CE80003110318013E03197A2EB6072B080311C6
:100CF8000318013E0319812EB7072208F0002508C2
:100D08000A128A1549250A128A11710883120313D7
:100D1800B9007008B8003808A8003908A900AA0165
:100D2800AB012808B407290803110318013E031969
:100D38009E2EB5072A0803110318013E0319A52E94
:100D4800B6072B0803110318013E0319AC2EB70789
:100D58002208F00026080A128A1549250A128A1163
:100D6800710883120313B9007008B8003808A80086
:100D78003908A900AA01AB0108300310A80DA90D74
:100D8800AA0DAB0DFF3E031DC12E2808B407290884
:100D980003110318013E0319D22EB5072A080311BF
:100DA8000318013E0319D92EB6072B08031103189F
:100DB800013E0319E02EB7072E08A8002F08A90046
:100DC8003008AA003108AB0018300310AB0CAA0C8D
:100DD800A90CA80CFF3E031DE92E2808B407290812
:100DE80003110318013E0319FA2EB5072A08031147
:100DF8000318013E0319012FB6072B080311031826
:100E0800013E0319082FB7070830A8000310AE0DDC
:100E1800AF0DB00DB10DA80B0A2F33083207A8008B
:100E2800A901A90D2808823EB80029080318013E27
:100E3800FF3EB9003C2F0130A8000310B40DB50DDA
:100E4800B60DB70DA80B212FB11F2B2F2C2F2D2F2F
:100E580034140130A8000310AE0DAF0DB00DB10D64
:100E6800A80B2F2FFF30B8070318B90AFF30B907AE
:100E7800B61F3F2F402F1F2FB201B11F442F452F00
:100E8800612FFF302E05A800FF302F05A900FF3085
:100E98003005AA007F303105AB002B082A0429044D
:100EA80028040319582F592F5C2F0130B200612FE5
:100EB800341C5F2F602F612F592F32080319652FBB
:100EC800662F972F0130B407003003180130B5079B
:100ED800003003180130B607003003180130B70797
:100EE800371C772F782F972F3408A8003508A900CA
:100EF8003608AA003708AB000130AC002B0DAB0C4C
:100F0800AA0CA90CA80CAC0B822F2B08B7002A0836
:100F1800B6002908B5002808B4000130B80703183E
:100F2800B90A0030B9073908803AFF0080307F02DB
:100F3800031DA02FFF303802031CA32FA42FAF2FAF
:100F48007F3083120313B7008030B6000030B5003D
:100F58000030B400E02F831203133908803AFF00F1
:100F680080307F02031DBA2F013038020318BD2FCD
:100F7800BE2FCA2F003083120313B7000030B6000B
:100F88000030B5000030B400AD01E02F8312031328
:100F98003808B300FF30B405FF30B5057F30B6051B
:100FA8000030B705331CD92FDA2FDB2FB6173308DB
:100FB800A8000310280CB7002D08B7043708A300B1
:100FC8003608A2003508A1003408A00008008313E1
:100FD8006830840070300A128A1513240A128A11A4
:100FE800A0308400CD300A128A1513240A128A11FF
:100FF80083010A128A11272908308A000408840A02
:0A10080082070034253469340034F7
:1018180001300A128A15B9240A128A1508006400D0
:101828008001840A0406031900340406142C831268
:10183800031388161F2C202C000083120313881210
:101848000800F71B282C292C2A2C352C7609F8009F
:101858007709F900F80A0319F90A7808F6007908EF
:10186800F7000800412C7508840000080A128A1540
:10187800DC240A128A150130F507750884008313E1
:101888000008031D482C492C372C08008316031325
:101898000713871718128316031787118316031364
:1018A8001815193099001812831203139817831604
:1018B80003131813981608007008F5006A2C7508A9
:1018C80084007108831380000130F5070130F302AA
:1018D8000030031CF403F402730A031D772C740A06
:1018E800031D772C782C632C0800F6000130F502D4
:1018F8008D2C7508803E0A128A15B9240A128A1599
:10190800952C7508C03E0A128A15B9240A128A1540
:10191800952C7608013A03197D2C033A0319852C76
:10192800952C0800333083120313B6003108B70032
:101938000030B800B901BA01C001C1013730AD00AB
:101948000030AE003208AF003630B0000A128A15F7
:1019580024250A128A158312031339083107B500A2
:1019680035088400831380010800F40083120313F0
:1019780008127408F30004300310F30CFF3E031D33
:10198800C02C73080A128A1570250A128A150A12C1
:101998008A151B240A128A1574080A128A157025DA
:1019A8000A128A150A128A151B240A128A150800B7
:1019B800F4008312031308167408F30004300310AC
:1019C800F30CFF3E031DE32C73080A128A157025D9
:1019D8000A128A150A128A151B240A128A15740813
:1019E8000A128A1570250A128A150A128A151B24EA
:1019F8000A128A15080083160313051483160317A1
:101A08008801890108147F30831203139F05BF30B2
:101A18009F05EF30831603139F05DF309F05DF30E6
:101A2800831203139F05EF309F05F7309F05FB30A6
:101A38009F05831603139F17831203131F140800AF
:101A4800831203132F08FD00382D831203132D086A
:101A5800A0002E08A1007D30A2003008A3000A12C1
:101A68008A11F9210A128A157D0884000A128A153A
:101A780000200A128A15003A031D432D442D292DF2
:101A880083120313AD01AE010800F800F401F5015B
:101A98007008F200F3017208F6007308F700781C6A
:101AA800562D572D5D2D7608F4070318F50A77088B
:101AB800F50701300310F60DF70DFF3E031D5E2DEF
:101AC8000310F80C7808031D6A2D6B2D532D75082B
:101AD800F1007408F0000800F20001307205F0000F
:101AE8008312031308087006FE397006880072080E
:101AF800F0000310700C0139F100F10D08087106AF
:101B0800FD39710688007208F00002300310F00CED
:101B1800FF3E031D8A2D70080139F100F10DF10D0A
:101B280008087106FB39710688007208F000033056
:101B38000310F00CFF3E031D9C2D70080139F100C5
:101B4800F10DF10DF10D08087106F73971068800DD
:101B58000800473084000630FF0083138001840AA0
:101B6800FF0BB12D83120313CD014408F000203080
:101B7800F1000030F2000530F3000030F4000A12E2
:101B88008A1560240A128A15831203134408053E35
:101B98008400831380014730B1000130B20043084C
:101BA800B4004208B3000A128A1596240A128A154C
:101BB800EB2D4D08473E84000008C5004D0844073A
:101BC800C60046088400450880000130CD0783120E
:101BD80003134D08473E840083130008031DF52DA9
:101BE800F62DDD2D0800053083120313E000E00B0D
:101BF800FB2DFE2D831203139F141F08E0000130F4
:101C08000310E00CFF3E031D042E60180C2E0D2E51
:101C1800012E1E08E000E1016008E100E0018316E2
:101C280003131E08831203136007F0000030031823
:101C380001306107F100F201F11BF2037208F300B1
:101C480001300A128A1173200A128A157308831246
:101C58000313D7007208D6007108D5007008D400A5
:101C68000A128A15F0260A128A15831203135508D8
:101C7800E3005408E2006308DF006208DE000800A1
:101C88008316031308108810081188110812881287
:101C98001A30F600F830F500F50B502EF60B502EE2
:101CA800000038300A128A15B9240A128A1507303A
:101CB800F6007D30F500F50B5F2EF60B5F2E383001
:101CC8000A128A15B9240A128A153130F500F50B63
:101CD8006B2E6E2E38300A128A15B9240A128A150C
:101CE80001300A128A15B9240A128A1502300A121A
:101CF8008A15B9240A128A1506300A128A15B924D7
:101D08000A128A150C300A128A15B9240A128A1581
:101D180028300A128A15B9240A128A1580300A1244
:101D28008A15B9240A128A150800F501F31F9D2E99
:101D38009E2EA52EF209F309F20A0319F30A0130BF
:101D4800F500F11FA82EA92EAE2EF009F109F00A10
:101D58000319F10A700871040319B32EB42EE12E89
:101D68000130F400C02E01300310F00DF10DFF3EDC
:101D7800031DB82E0130F407F11FC32EC42EB72E51
:101D880071087302031DCA2E70087202031CCD2E3F
:101D9800CE2ED42E7008F2027108031CF303F3024E
:101DA80001300310F10CF00CFF3E031DD52E01305D
:101DB800F402031DE02EE12EC42E75080319E52E4A
:101DC800E62EEB2EF209F309F20A0319F30A730857
:101DD800F1007208F0000800031083120313560D77
:101DE800570DDD005D08031DFA2EFB2E042F003071
:101DF800D7000030D6000030D5000030D400652F61
:101E08005408D8005508D9005608DA005708DB00EE
:101E18001F300310DB0CDA0CD90CD80CFF3E031D65
:101E28000D2F5808DC00D617FF30D405FF30D50534
:101E3800FF30D6050030D7059630DD02DD1F252F8F
:101E4800262F3E2F5D08803A973E03182C2F2D2F02
:101E58002E2FFB2E01300310D70CD60CD50CD40C2A
:101E6800FF3E031D2F2F0130DD07031D3C2F3D2FA3
:101E78002E2F552F20305D02031C432F442F502F47
:101E8800FB2E0130D8000310D40DD50DD60DD70D7B
:101E9800D80B472F0130DD025D08031D542F552F45
:101EA800452F5C080319592F5A2F652FD409D509D6
:101EB800D609D709D40A0319D50A0319D60A03196A
:101EC800D70A08007208730403196B2F6C2F722F3E
:101ED80072087304031D712F722F792F70080A126C
:101EE8008A1104200A128A15FF2F7208093EF4008D
:101EF80073080318013E003EF50074088400831738
:101F0800751C83130008F600840A0008F700760899
:101F180077040319902F912FC32F7208093EF400FC
:101F280073080318013E003EF50074088400831707
:101F3800751C83130008F600840A0008F70072086D
:101F4800023EF80073080318013E003EF9007808C5
:101F580084008317791C83130008FA00840A000898
:101F6800FB007B08803AFC007708803A7C02031D5E
:101F7800BF2F76087A020318C22FC32FFF2F7208CB
:101F880084008317731C83130008F400840A000874
:101F9800F5007208023EF60073080318013E003E81
:101FA800F700760884008317771C831300087407EA
:101FB800F9007508F8000318F80A801FE42FF803E1
:101FC8007808FA007908840083177A1C831370084C
:101FD80080007208023EF40073080318013E003EB8
:101FE800F500740884008317751C8313013080077B
:081FF800840A0318800A0800A6
:00000001FF
